:10000000882900203D140000251400003914000048
:1000100000000000000000000000000000000000E0
:100020000000000000000000000000002514000097
:10003000000000000000000025140000C10D0000B9
:1000400025140000251400002514000025140000CC
:1000500025140000251400002514000025140000BC
:1000600025140000251400002514000025140000AC
:10007000251400002514000025140000251400009C
:10008000251400002514000025140000251400008C
:1000900025140000000000000000000025140000EE
:1000A000251400002514000025140000251400006C
:1000B00000000000F8B5394D00AFAB68002B00D050
:1000C000FEE701F0F3FA364B1E68364BF218F823C0
:1000D0009B029A4214D8344B344A1968344C354B3D
:1000E000914238D11978344AC90702D42168914223
:1000F00031D0324B22601B68314A2D33FF331360FD
:10010000012400F0F7FD2F4B1C70BFF35F8F62B628
:1001100000F0BCFB0A2001F0D1FA00232A4E337014
:1001200000F0CCF9294D00280FD02B78DBB2002B42
:100130000AD1A020224A0001136001F0BFFA002377
:10014000F356002B00D134702C702B78002BE7D0A5
:1001500001F01CF8FCE71B78DB07DB0F0DD0002358
:10016000802223601A4B12055A6180239B011A6872
:1001700082F30888AB603047C2E72168154A914294
:1001800001D12360BCE721680B4B9942E7D0FA20EC
:100190002260400001F0D4F9E1E7C04600ED00E044
:1001A0000420000000E0FFFFB42000007CB0EE87D8
:1001B000FC7F002038040040EF6926F08009002011
:1001C0008409002078000020AC000020B00000204E
:1001D00000440041EF6916F0202370B5364A0F2025
:1001E000D1690B43D361012234490B7813430B705F
:1001F000334B19788143197006211C7821431970FB
:1002000030490C7822430A701A7802401A70602232
:1002100019780A431A702C4B2C4A5A805A7852B2D9
:10022000002AFBDB01222A4B19780A431A709A78BC
:10023000D207FCD41F2027490A68520B0240824291
:1002400000D105221C8D244D024092012C402243F6
:100250001A850A68920C02401F2A00D1023A1F2414
:10026000188D2240A043024307201A850A68D20D48
:100270000240824200D10322198D02401748120326
:1002800001400A437F211A851A7815480A401A70DE
:10029000042219780A430C211A7058621A898A4379
:1002A0001A811A890B398A431A818022002152004F
:1002B00001F00EFA70BDC0460004004058440041F1
:1002C0003C44004159440041000C004006400000FD
:1002D00000500041246080003FF8FFFFFF8FFFFFC8
:1002E000F8050020F7B51C00314B06005B6A0F00D3
:1002F00015000193002C05D1443454432D4BE418D0
:1003000001F058F963782278934210D2D51ABD4291
:1003100000D93D00002E08D0211DC9182A00300048
:1003200001F0CDF963785B1963702800FEBD019B75
:10033000A1786A01D318002911D1211D19605968CB
:100340001D48890B890359605968014059601B4950
:10035000551840212879014329710121A1701449C0
:1003600000255118019116495218127AD207DCD58E
:100370005D68A278EDB22570022A04D11968201DAB
:100380002A0001F09CF9BD4200D93D00002E0CD09E
:100390006570211D2A00300001F091F90122019BB6
:1003A000FF331A720023A370BFE76670F6E7C046FA
:1003B00000500041F8060020FF3F00F000510041CE
:1003C000FF50004110B50023FFF78CFF10BDF8B5BA
:1003D00005000C0016001F00002C00D1F8BD210004
:1003E00028003B003200FFF77DFF241A2D18F3E7A9
:1003F000F8B50E001F4955014C6A2C19002B1CD072
:1004000063695B005B08636120616369B2049B0BF5
:10041000920C9B03134363616369174A8021134065
:100420006361164BEA18022313729171134AAD18D7
:100430002A7A1A42FCD03000F8BD012163695B00C2
:100440005B0F03339940B14208D8043A531E9A41D6
:100450006369D2075B005B081343D4E74427574323
:10046000074A0437BF1801003200380001F027F9AD
:100470003800C9E700500041FF3F00F0FF50004145
:10048000F806002010B50023FFF7B2FF10BD0000F2
:10049000054B10B51B888B4200D90B0000221900B8
:1004A000FFF7F0FF10BDC046B200002007B50022E4
:1004B0006B461100D81DFFF7E5FF07BDF0B597B0FB
:1004C00001F078F80823BE4CBE49A68B1E402FD001
:1004D000A383802311224020A372C0244A70887114
:1004E0004B71B94BB94D5A68A4052A4022435A6052
:1004F0005A692A401443B64A5C611A60B54AB64C40
:100500001A615A6814408022920222435A605A6843
:10051000920B92035A600023B04A48711370B04A9C
:100520001360AE4B1878431E9841C0B217B0F0BDAF
:1005300010220B7A1342F4D0AA4D0A72AA79AB8822
:100540000092EA79009801921202024312B20292DA
:100550006A4617896A7A287A1202104300B282B278
:100560000392EA7AAD7A120215439F4A158040251C
:100570009E4A4D71934200D10CE11FD88024640043
:10058000A3422AD00AD8812B04D0822B00D1E5E0E7
:10059000802B22D104AB1E80022163E08124640001
:1005A000A34200D140E106D3C0229200934214D06E
:1005B0008F4A934211D1FFF779FFB2E790221201DF
:1005C000934277D013D88B4A934209D8013A934289
:1005D00020D2813AFF3A934263D020238B71A0E767
:1005E000882212019342F8D101217C4818E0824A06
:1005F000934200D142E101D8804ADAE7804A93422F
:10060000D9D0804A9342E8D1002304AA1380012163
:10061000100005E080235B009F4204D112217A483C
:10062000FFF736FF7DE780239B009F4202D16221C6
:100630007648F5E7019B032B2DD14822002104A821
:1006400001F046F86A46127904AB5A70009B002B01
:100650000AD1043304AA1370092204A98A70CB704A
:1006600004AB19781800DBE7009B022BF8D8684A26
:100670009B009C58200001F033F8013004AB40008F
:10068000187000235A1CE35C002BE9D0510004A829
:1006900043541300F6E7019B0F2B9ED105215D48C3
:1006A000BEE7FFF703FF8022029B52421A43D2B2F9
:1006B000A27236E76A46494B127A30261A70FFF763
:1006C000F5FE03239C4662463E33FF33E254C022CC
:1006D0003D4B3E49586C92050840104358644620F3
:1006E000FF3025544C48674618649020400026543B
:1006F000586B8026084010435863922040002654CF
:1007000046481863B02040002554586F0840586789
:10071000B220400026543C302754FC3884469C4488
:10072000604667460068084010433860A620FF30E6
:10073000255418003A4DA0300560C02030254000F7
:1007400025541D0094352868903301400A432A60DF
:10075000C2225200A654334A1A60E2E604AB1E805D
:100760000F2382B21A40072A00D936E708324133F4
:100770005201184209D0124BD21893799B06DB0F15
:1007800004AA1380022104A84AE70D4BD2189379DA
:10079000DB06F4E7002F00D01FE70F2382B21A40D8
:1007A000531E062B00D918E70832054B5201D21808
:1007B000030602D520235371FDE61023FBE7C04654
:1007C00000500041FF500041F8050020FFFFFF8F5F
:1007D000B8050020FC060020FF3F00F0B10000201B
:1007E000A4050020B4050020B20000200203000090
:1007F0000103000081060000A1210000212000006B
:1008000021220000A1FE0000F016000008000020D8
:100810001817000000000020840700204007002077
:10082000500800200C080020002F00D0D5E60F2330
:1008300082B21A40531E062B00D9CEE6114B52014C
:10084000D218D17903060CD52023194200D1B2E683
:100850005371117ADB18194200D1ACE613723E3B9A
:10086000A9E71023194200D1A5E65371117ADB18CC
:10087000194200D19FE613721F3B9CE708210248F2
:10088000CEE6C046FF5000416C00002010B5FFF7D7
:10089000A3FC0022034B1A700223034A11780B4376
:1008A000137010BDB10000200050004110B50C00C5
:1008B0000122FFF7E7FD200010BD10B50C0001225A
:1008C000FFF7E0FD200010BD70B504000D00FFF73C
:1008D000F5FD03000020834204D0022229002000FD
:1008E000FFF770FD70BD70B505000C00FFF7E6FD69
:1008F000002807D00023022221002800FFF767FD0F
:10090000200070BD0400FBE730B5030020251C1A51
:10091000A24200DC30BD0C78002C03D001311C70E9
:100920000133F4E71D70FBE7F8B580220C000500E9
:1009300092000021200000F0CBFE002D0CD13E22C1
:100940004E49200000F0BBFEFF2355225B00E2541D
:100950004B4B9218E254F8BD402D33D86B1E1F2B21
:1009600000D9203B002B0AD11022524222800F32A4
:100970006280A280E28005322281424A6281F026B2
:100980001B025A1C581C404D404F92B2FF30FF369C
:10099000191FA94204D81100BB4200D13C49218053
:1009A0003C495918B14206D83B498C461100634571
:1009B00000D1374921800132013392B2023483429F
:1009C000E6D1C8E7442D24D8412DC4D12B490B22B0
:1009D0002B312000FFF798FF304E28233500E372BB
:1009E00010357036B542B6D029002B7820342377E5
:1009F0006B7810396377AB780B22A377EB78200004
:100A0000E377AB881835A3761B0AE376FFF77CFF04
:100A1000E8E72A00453A012A0BD818235A431F4B0E
:100A20009B18DD68280000F05BFE29000200200012
:100A300016E02B00144A473B934214D8184A194831
:100A40002260194A19026260FE225200A0506361BE
:100A500080232000DB00FC3AA361E16022612030AA
:100A600000F02DFE77E7114BE918114B490299422E
:100A700000D970E780229200D9E7C0462417000011
:100A8000FF01000004040000FF0300000304000055
:100A9000FFFF0000FCFBFFFFF3050000CC17000088
:100AA0005546320A306FB10A57515D9EC9FBFFFFB0
:100AB000FFFF0300F8B517001E000A684D4B0C003D
:100AC0009A4275D14C4B4A689A4271D1FE2252002B
:100AD0004A4B8A589A426BD18B68DB0711D480232A
:100AE00022695B009A420CD1E068C3B2002B08D1A6
:100AF000434B444AC318934203D82100203100F0ED
:100B0000D1F8002E4DD0A369002B4AD031683E4A5F
:100B10008B4206D0934201D8002901D001235B42C9
:100B200033606369934264D80721012219408A40E7
:100B3000DB08F318197AD2B2114204D10A431A72AF
:100B4000736801337360726833689A4251D3002F1F
:100B50004FD12E4B1B681E332D4A136049E0FF2BEB
:100B600047D9106015682B4B451B10356D029D420F
:100B70003FD82100280000F095F8611C681CFF3167
:100B8000FF3000F08FF834E0002B32DB01235B42B2
:100B900013601E4B1E4A1B689633136000230B60C4
:100BA00027E0002F25D1194B1B682D33FF33D3E7E6
:100BB00019491A4B0A689A421BD9194A13684428E2
:100BC000E2D9002BCEDA230021000F332B311D7820
:100BD000002D0ED101338B42F9D1124BE518297843
:100BE0000139C9B2FD29BAD9013B9BB2013D002BA5
:100BF000F5D1F8BD5546320A57515D9E306FB10AA6
:100C000000E0FFFFFFDF0300630400008009002015
:100C100084090020FFFF0300A40500207F320200AA
:100C200074000020FF010000074B1A00197DC9075E
:100C3000FCD52021FF31198304494008D86119806F
:100C4000137DDB07FCD570470040004102A5FFFF84
:100C5000F0B58025104B114E5C68114FAC435C60C1
:100C6000002A00D1F0BD1400102A00D91024121B54
:100C70001E801D7DED07FCD5A400A44600240D595F
:100C8000055104346445FAD1001909191F801C7DEF
:100C9000E407FCD5E4E7C0460040004144A5FFFF5F
:100CA00004A5FFFF802270B5002304000D00520050
:100CB000E958E058814203D104339342F8D170BD22
:100CC0002000FFF7B1FF402229002000FFF7C0FFFE
:100CD000F5E70000024A53785BB2002BFBDB70475C
:100CE000000C004010230249CA681A42FCD0704729
:100CF000000800401E21F8B50226254A254C5368FD
:100D0000254D8B4333435360A660FFF7E3FF234B2E
:100D10006360FFF7DFFFAE84FFF7E4FF204B1B6843
:100D20009B0E3F2B00D1203B002602271D4A9B0231
:100D300013431D4AEA62AB62AE84FFF7D3FF1B4B3D
:100D4000AB84FFF7CFFFAB8C3B43AB84FFF7CAFF0D
:100D50003F226388934380221F4367806388D201C8
:100D600013436380A660FFF7B5FF114B6360FFF785
:100D7000B1FFC0210F4A104B10485360036A0906A7
:100D80001B021B0A0B430362072396601360F8BD26
:100D900000400041000C0040000800400600010037
:100DA00024608000FF01000080BB0A1C24050000B5
:100DB0000007030010E000E0E703000000ED00E0A2
:100DC00010B500F017FC10BD10B5054C1222002123
:100DD000200000F07DFCF0232370E63BE37110BDA2
:100DE000EF02002070B5130006000C001500002073
:100DF0000A000121FFF776FA0023984206D02B0063
:100E000022001F213000FFF76DFA0123180070BD8A
:100E100010B504220D210248FFF734FB10BDC04677
:100E20007900002010B50B480B4942790379120272
:100E30001A4383791B041A43C3791B0613431A0A06
:100E40000B714A711A0C1B0E8A71CB71FFF7E0FF10
:100E500010BDC046D00200207900002070B50422E9
:100E60000D00FFF70FFB164C85420FD0FFF7ACFFCC
:100E7000012304222373134B9A700022DA701A7133
:100E80005A719A711A735A73FFF7CCFFFFF79CFFE0
:100E900000232373637A217A1B020B43A17A09048E
:100EA0000B43E17A09061943491B0B0A217263724D
:100EB0000B0C090EA372E172FFF7B4FF70BDC046C0
:100EC00079000020EF02002070B5194C00210500C8
:100ED0001422200000F0FCFB1649002D21D0220036
:100EE0000823C87D08323F26497C31401C2901D0A7
:100EF000B14207D11C211170123951700C330539E0
:100F0000D170DBB2191C834200D9011CC9B2002D7B
:100F10000BD0023B9BB21B0223802000FFF79EFFF9
:100F200070BDC87C221D0423DDE7013B2370F4E77C
:100F3000B4020020D0020020F7B52B4B01AA597C47
:100F40000700D170997C00249170D97C5170197D73
:100F500011706A46961C9A7D7270DB7D33703388FF
:100F60009C4207D3FFF730FF0022204B1A73FFF794
:100F700059FFF7BDFFF7A2FA0028FAD01C4D002F49
:100F800020D0019B2900E018FFF7CEFC802104222D
:100F900089002800FFF776FA144A0134517A137A4F
:100FA00009021943937A1B041943D37A1B060B4396
:100FB00010495B18190A13725172190C1B0E9172A9
:100FC000D372CCE780213B00280005228900FFF77F
:100FD000FEF9019B3A00E0182900074BFFF76AFD74
:100FE00000F04EFBD8E7C046D00200207900002078
:100FF000B400002000FEFFFF04030020F0B5494FBD
:1010000087B0002205213800FFF7ECFE002858D0F9
:101010007B7A3A7A1B021A43BB7A434D1B04134373
:10102000FA7A002612061A436B4601921B792B723C
:10103000130A6B72130CAB72130EEB72FC7B1E2C3B
:101040001BD01ED8122C3ED013D8B44250D0032C43
:101050002ED0FFF7B9FE012305222B73334B20213D
:101060009A7000221973DA701A715A719A715A7350
:1010700041E01A2C36D01B2CEBD1FFF7A5FE2E73C6
:1010800039E0282C3AD00BD8232C3BD0252CE0D1AA
:10109000802327489B024360264B082103600EE013
:1010A0002F2CEAD05A2C21D02A2CD2D1300026E085
:1010B000FB7C191C122B00D912211C48C9B2FFF766
:1010C000CDFE07B0F0BD1C4C1C4920001822083092
:1010D000FFF71AFCFB7C191C242B00D92421C9B270
:1010E0002000ECE73000FFF7EFFEEAE70120FAE727
:1010F000FFF76AFE2C73FFF795FEE2E70120FFF78A
:101100001BFFDEE70C240E49220003A800F0D7FAEB
:10111000019BA34203D92C726E72AE72EE720C2147
:1011200003A8CCE7D002002079000020EF020020C5
:10113000C802002000001F3F880000200B1700009D
:101140008518000080B500AF72B6BFF35F8F002234
:10115000064B1A70EFF30883054A1360036883F3A4
:10116000088843681847BD4680BDC0467800002007
:101170007409002007B501000122684600F0E8F973
:1011800008216846FFF792FB07BD000000227A2382
:10119000F0B58D4985B08D4C00AF22600B70FA60C0
:1011A0007B60FFF72BFF8A4D40212800FFF78CFB67
:1011B000884B18603B7B2B54002804D000F060FA69
:1011C000854BFA681A60854BFA681D60844B1A607B
:1011D0008348804B02681B689C469A42E1D27F4D4F
:1011E00029680B78FF2B37D07E4E232B00D0C8E028
:1011F000754B1B78532B34D1013202606046336843
:1012000001312960821A9A4200D91A00764D20686D
:101210002A6000F054FA7248296803686F4ACB18B4
:10122000013B036010684B1EC31813606D4B6F4D7C
:101230001B682970C9B2994203D2591A2068FFF776
:1012400052FBC046604B3A791A70664BFA681A60D6
:10125000624A136801331360614A136801331360F3
:10126000B6E7522B04D131682068FFF726FBE9E787
:101270004F2B03D1336822681370E3E7482B03D167
:10128000336822681380DDE7572B0AD1584B226858
:101290009A4202D1574800F011FA236832681A6066
:1012A000D0E76F2B04D101212068FFF7FFFAC9E7CF
:1012B000682B05D1022123681B8833603000F4E7D6
:1012C000772B04D1236804211B683360F6E7472B92
:1012D00012D13068FFF736FF474B1B6883F308884D
:1012E0000121464B1970BFF35F8F62B6444B4548EE
:1012F0001B78002BA6D0D8E7542BA3D04E2BA1D01F
:10130000562B02D12A214048CFE7582B0CD1356803
:101310003E4B9D4202D903213D48C6E728000135D6
:10132000FFF782FCFF35F3E7592B0ED13268394BBA
:10133000002A04D122681A6003213748B5E79208D1
:1013400019682068FFF784FCF6E75A2B00D079E78C
:10135000336800262568EB18BB60BB689D4209D145
:1013600001212E48FFF7A2FA3000FFF703FF032107
:101370002B489AE72878310000F0B8F801350600CC
:10138000EBE71A00303AD1B2092904D833681B01BF
:10139000134333605CE71A00413A052A03D83268E8
:1013A000373B1201F4E71A00613A052A03D8326884
:1013B000573B1201ECE72C2B03D133682360FB6809
:1013C000E7E7014A1370FAE72409002070090020BA
:1013D0002C0900201C090020A40500202009002061
:1013E00028090020780900207C0900201809002025
:1013F0000CED00E00A000A007409002078000020CB
:101400009C030020BB18000091180000FFFF0300A0
:10141000BD180000A0030020C1180000C51800007E
:10142000C718000082B0EFF305833F221340103B42
:101430005BB20193019BFEE7FEE7000020482149D3
:1014400070B5884204D000231F4CCA18A24230D382
:1014500000211E4B1E4A93422FD3FF211D4B1E4AD3
:101460008B43936002220C25082430261B4B1C481A
:101470005A62C378FC398B431343C370C378AB43C0
:101480002343C370174B987BB043060020203043A2
:101490009873987BA84304439C73987B88430243CA
:1014A0009A738023104A51680B435360FEF702FE83
:1014B000FEE7C55804331560C7E702C3CBE7C04653
:1014C000CC18000000000020B0000020B000002078
:1014D000880900200000000000ED00E0FC700041E1
:1014E0000050004100480041004000410022F0B59A
:1014F000114E7388934216D10824D3019BB21DB2BA
:10150000AC4667465D00ABB2002F02DA0B4B5D4084
:10151000ABB2013CA4B2002CF1D1B3528023023211
:101520009B009A42E8D10B0A58404000305A090209
:10153000484080B2F0BDC046A40300202110000046
:1015400001230002984200D87047C0460133F9E7F2
:10155000F0B506001C2500200F270C00EC403C4095
:10156000002A05D1002C03D1002D01D0002809D07C
:10157000431C9C46331820003030092C00DD073016
:1015800018706046043D2B1DE7D1F0BD054A064B9F
:101590001A60BFF34F8F054A054BDA60BFF34F8FD8
:1015A000FEE7C046EF6926F0FC7F00200400FA0544
:1015B00000ED00E00B4A10B51368002B0ED10A496C
:1015C00011600A490A6801320A600949086800285E
:1015D00006D0824204D30B60FFF7D8FF013B1360B3
:1015E00010BDC046B0050020DC05000080090020C9
:1015F000840900201B4A10B513681B49013313608E
:101600001A4A1368013313600A68002A0CD018487C
:101610001018834203D18024164824058461934224
:1016200001D100230B6010BDDBB2134A002B11D196
:101630008021104B090599611378104918000A3868
:10164000C0B2F02802D908784042087009785B18C7
:101650001370E8E712789A42E5D18022054B120513
:101660005A61E0E7A4050020AC050020A805002091
:1016700018FCFFFF00440041AD000020AC0000203A
:10168000074B084A1B681168994207D2FA21C90022
:101690005B1813608022044B12055A617047C046E4
:1016A000A8050020AC050020004400418022024B28
:1016B00012059A609A617047004400417047002308
:1016C00010B59A4200D110BDCC5CC4540133F8E788
:1016D00003008218934200D1704719700133F9E773
:1016E0000023C25C0133002AFBD1581E7047000062
:1016F00012010002EF020140D80466EF014201022C
:10170000000153656E7365426F780053656E7365B3
:10171000426F78204D435500000000000217000082
:101720000B170000EB3C9055463220554632200006
:10173000020101000240003E1FF8200001000100EC
:101740000000000000000000000029420042005399
:10175000454E5345424F5800000046415431362013
:1017600020203C21646F63747970652068746D6C0F
:101770003E0A3C68746D6C3E3C626F64793E3C731B
:1017800063726970743E0A6C6F636174696F6E2E68
:101790007265706C6163652822687474703A2F2FCB
:1017A0007777772E73656E7365626F782E64652226
:1017B000293B0A3C2F7363726970743E3C2F626F41
:1017C00064793E3C2F68746D6C3E0A00494E464F6A
:1017D0005F554632545854002C1800005800000041
:1017E00002000000494E44455820202048544D0036
:1017F00062170000690000000300000043555252C8
:10180000454E5420554632000000000000000800FC
:101810000400000043555252454E542042494E00A8
:101820000000000000E003000404000055463220E0
:10183000426F6F746C6F616465722076312E323442
:101840002E3020534652420D0A4D6F64656C3A208B
:1018500053656E7365426F78204D43550D0A426F94
:101860006172642D49443A2053414D44323147312D
:1018700038412D53656E7365426F782D4D43552D5C
:1018800076300D0A000000000800001F4002000230
:101890000076312E31205B41726475696E6F3A5863
:1018A000595A5D204A616E20323020323031382062
:1018B00031333A34323A31390A0D000600580A0DF4
:0C18C00000590A0D005A00230A0D000018
:1018CC00050F050000000000090262000301008002
:1018DC000A080B00020202010009040000010202C6
:1018EC000100052400100104240206052406000151
:1018FC000524010301070583030800FF0904010007
:10190C00020A0000000705810240000007050202E0
:10191C00400000090402000208065000070584027A
:10192C0040000007050502400000000000C2010055
:10193C0000000800FFFFFFFF015553425300000059
:10194C0000000000000000000080020220000000E7
:10195C00000000000000000000000000000000007B
:10196C000000000000000000312E303001C80000E3
:101FF0000000000000000000000000002C1800009D
:00000001FF
